:1000000078FFE4B8200118F6D8F99000007F007E50
:1000100007E4F0A3DFFCDEFA75812102299F122D8F
:10002000109001CDE06F6002EFF022022371E4FD39
:100030009001D0E060119001D4E0FE54F0FDEE5448
:100040000FF0E49001D0F0CFEDCF2202246775B21B
:100050008E75B6F9E4F5B743B20143AA01022FF257
:10006000000000022BD8900259EBF0A3EAF0A3E9BC
:10007000F0900166E024FE601014607414700302B6
:1000800012EE240370EB122F6F90015CE0604F9032
:1000900001A4E004F0E490025CF0121D6DC39F50D7
:1000A0003A121C5512219600000000EBB40110E436
:1000B0009001DEF0A3F09001E27404F0E4A3F0906C
:1000C000025CE0B40210E49001E0F0A3F09001E4DF
:1000D0007404F0E4A3F0121E6980BF12279190010E
:1000E000A4E0C39401408A122D569001667403F077
:1000F00090015CE07003021071E490025CF0121D4C
:100100006DFBC39F40030211CB121C92121D88F598
:1001100083E475F00112206CEF121D84121D1A6425
:10012000014E700B121B6BFF121D5FF583802912AD
:100130001D21121D63F583C083C082121B7AFF123A
:100140001E70121F58121BC2EF2BFFEE3AFEED3944
:10015000FDEC38FCD082D08312218A121B85121D3F
:10016000EAFB121B6CFF75F022EB121C0D121C4DEA
:10017000121DF6FFEB121C7E121DEAFB701D121CF5
:1001800092121E4F121D3275F022EF121C5A121DD0
:10019000F6241EFFE43E90025F801875F022EB12F9
:1001A0001C5A121DF6FF90025F121D77EB121E4BB8
:1001B000F583EEF0A3EFF090025CE0121C571221E1
:1001C0009600000000121E690210FEE490015CF02F
:1001D000C3900084E0940A900083E09400500302EE
:1001E00012E8E490025CF0121D6DFBC39F40030215
:1001F00012BC75F02FEBA4247FF582E5F03400F5F6
:10020000831221960000000075F02FEBA42493F5D3
:1002100082E5F03400121D32121D21121D87121DBD
:100220001AFBCAEECAE4F9F8121D21121D63121B53
:1002300078FF1220D4121CC6248BF582E5F034001E
:10024000121F1575F012ED121BE6E4F0A3F0ED128B
:100250001D60F58312219600000000121C8F121DF4
:1002600088121D3275F02FEF121E05E4F075F02292
:10027000EF121CB2E4F075F022EFA42422F582E51F
:10028000F03400F583E4121D397405F075F022EFA7
:10029000A42424F582E5F03400F583740AF075F0A7
:1002A0002FEFA4121CDD740AF0EF121B6CFF121C5E
:1002B00099F58312218A121E690211E7900002E06B
:1002C00075F00AA4900160F043A9089001667404D7
:1002D000F0E4FF122EFD9001A5E07002A3E060059E
:1002E0007F0A122EFD021B3C12279602107112305B
:1002F0003490015CE07003021071900160E0D394CF
:10030000004006E014F002180FE490025CF0121DA9
:100310006DF9C39F400302180F75F022E9121C0DFE
:10032000121DF4FBCAEECA75F022E9121C5A121D06
:10033000F6C39BFFEE9A90025DF0A3EFF0E9700325
:1003400002152790025DE0FEA3E0FF12307C9002D0
:100350005CE0FB75F008A42432F582E5F03401126C
:100360001D91C39FEC9E5026121CAA7401121D39C8
:100370007405F075F022EF121B6FFF75F022EB127F
:100380001C0DF58312218A75F02FEB021412121C3A
:10039000AAE0700302141875F022EF121CA0121BC1
:1003A000C275F022EF121B6FFFC312216690025C30
:1003B000E0FF75F0225024121CA0121BC275F0221F
:1003C000EF121B6F121D4A121C99F583E0F8A3E08F
:1003D000F9A3E0FAA3E0121F3C8027121F58121B5A
:1003E000C275F022EF121CA0121B78121D4A121EB9
:1003F000E8121C99121B78C39BFFEE9AFEED99FD43
:10040000EC98FC90025CE0121C0AF58312218A121F
:100410001D21121D29121F6290025CE0FB121C0AB2
:10042000121B96121D7712307C90025CE0FB75F077
:1004300002A42456F582E5F03401121D91D39FECFD
:100440009E5003021508121B9FE0FEA3E0FFE4FC90
:10045000FD121BB5D3122166121E70405D121C0DD9
:10046000F583C083C082121B7AFFECC0E0EDC0E0D0
:10047000EEC0E0EFC0E090025CE0121BA0E0FEA343
:10048000E0FBCAEECAE490025CE0121C0A121B7880
:10049000C39BFFEE9AFEED9400FDEC9400121D55F7
:1004A000121EE8D0E0FFD0E0FED0E0FDD0E0FC126C
:1004B0001E78ED99FDEC980214F7121C0DF583C01F
:1004C00083C082121BC4E8C0E0E9C0E0EAC0E0EBF0
:1004D000C0E090025CE0FB121BA0121BAF121E7862
:1004E000E499FDE4121D54D0E0FBD0E0FAD0E0F92D
:1004F000D0E0F8EB121F3CFCD082D08312218A128C
:100500001D21121D29121F62121CAAE06019121D62
:100510003AE0D39400121E704008121D3EE014F021
:100520008005121CB2E4F0121CBE121E99121EB4F9
:1005300075F02FED121E98121D1AD3940AEE6480E6
:1005400094804011121BF2F583C083C082121B7A83
:10055000121F1D802E121D21121E98121D1AC394E7
:10056000F6EE6480947F5023121BF2F583C083C0A3
:1005700082121B7AC39401FFEE9400FEED9400FDFD
:10058000EC9400FCD082D08312218A121B85121DAC
:100590007790025DF0A3EFF012307C75F008121C2A
:1005A000C92432F582E5F03401F583E0FAA3E0D303
:1005B0009FEA9E406475F02FED121E24E0600B123E
:1005C0001B85EEF0A3EFF0021648121CBE121EBCF3
:1005D000121EB4121D0DD3940AEE64809480401351
:1005E000121C8F121EBC121D32EF121BA0E475F0FC
:1005F000018021121D0DC394F6EE6480947F501784
:10060000121C8F121EBC121D3275F02FEF121BA38D
:1006100074FFF5F012206C802F90025CE0FF6030D8
:10062000C3A3E064809480501F122F2390025CE0EB
:10063000FF122E0DEF6019121B85EEF0EF121C8DCC
:10064000121CDD740AF0800890025CE0FF12305446
:10065000121C8F121E25E06019121CEAE0D39400D0
:10066000121D214008121CEEE014F08005121E2419
:10067000E4F090025CE0FF121C7EE0FCA3E0FD755C
:10068000F02FEF121BA3121E1DFFEE9C90025D12B5
:100690001DEBFF700302172275F02FA4121EC51266
:1006A0001D1AD3940FEE64809480402A121D2112EB
:1006B0001E057401F0C390025DE0648094805014C4
:1006C00075F02FEF121BA3E0FCA3E0FD121C7DECE4
:1006D000F0A3EDF08036121C8F121EC5F583E0FCEE
:1006E000C3EC64809480503290025EE094009002EB
:1006F0005DE064809480401475F02FEF121BA3E03E
:10070000FCA3E0FD121C7DECF0A3EDF0121D211204
:100710001D9C121D32121F628008121D21121E051F
:10072000E4F0121CBE121D9D121EB4121D98121D63
:100730001AD394FAEE648094804009121C66E47522
:10074000F0018017121D98121D1AC39406EE6480E2
:10075000947F500A121C6674FFF5F012206C900210
:100760005CE0FF12255190026BE070030218091241
:100770001F29900029121BC4C31221665006900243
:100780006E7426F0121F2990004B121BC4C3122155
:1007900066501B90026E7427F0121F2990002912D8
:1007A0001BC4C3122166500690026E7428F090029A
:1007B0006EE06433703E121E80121BC4C3122166A9
:1007C000500690026D7426F0E47F347E21FDFC908B
:1007D000004B121BC4C3122166501990026D74277E
:1007E000F0E4121E80121BC4C31221665006900250
:1007F0006D7428F0E490026BF090026EE09001DCE2
:10080000F090026DE09001DDF0121E6902130EE41B
:1008100090025CF0121D6DFEC39F400302198EEE24
:10082000121E4B121D91FD900090E02DFD90008F47
:10083000E03CFCEE121E3EF583ECF0ED121C8D1236
:100840001E42121D91FD121C7D121E1DFFEE9CFE0C
:10085000121CC6121EC5121F1575F02FED121BA318
:10086000E0FEA3E0FFE4FCFD121E70121BB9C312F0
:100870002166500302191790025CE0FB121C0A1259
:100880001DF42400FFEE3404FE121B9F121D77900E
:10089000025CE0FD75F022121DAE121F1575F022EC
:1008A000ED121C0DF583A3A3E0FEA3121D70FD1233
:1008B0001BA0E0FAA3E0FB121E7875F012ED121BEC
:1008C000E6121DEAFF121BD0E0FEA3E0D39DEE9CD2
:1008D00090025CE0401E121BD0121E1DFFEE9CC356
:1008E00013FEEF13FFED2FFFEC3EFE90025CE07570
:1008F000F0128018FB121BE3E0FEA3E0FF7C007DFA
:10090000631220050D12201775F012EB121BE6EE94
:10091000F0A3EFF002195890025CE0FB121BA0124A
:100920001BAF121E78E499FDE498FCE4FB7A04F90D
:10093000F8D312216690025CE0FF75F012401012AD
:100940001BE6121DA6F5837404F0A3E4F0800912DF
:100950001BE6121DA6121D3290025CE0FB121B6CFE
:10096000FF75F022EB121CA0121C4D122196000004
:10097000000075F022EBA4240FF582E5F03400F5B9
:100980008312219600000000121E69021814D390F1
:100990000119E0945E900118E09401401AA3E0244C
:1009A000A2900118121DCE7D32122017EF245EFF97
:1009B000EE3401F0A3EFF0D390012BE094549001BA
:1009C0002AE09401401AA3E024AC90012A121DCE23
:1009D0007D32122017EF2454FFEE3401F0A3EFF024
:1009E000900118E0541F9001DEF0900118A3E090F0
:1009F00001DFF090012AE0541F9001E0F090012AFD
:100A0000A3E09001E1F0D3900042E094789000419F
:100A1000E09405401EA3E02488FF900041E034FAF2
:100A2000121DD27D1E122017EF2478FFEE3405F040
:100A3000A3EFF0D3900064E09464900063E0940529
:100A4000401EA3E0249CFF900063E034FA121DD204
:100A50007D1E122017EF2464FFEE3405F0A3EFF0A3
:100A6000900041E0541F9001E2F0900041A3E0901B
:100A700001E3F0900063E0541F9001E4F090006304
:100A8000A3E09001E5F01227919001A5E07002A388
:100A9000E060030210711228DC12101E122AC690A8
:100AA0000166EFF064046003021B3C900001E0FF6C
:100AB000121E11EF121FD1900001E0FDD3941040DF
:100AC00030122796121E11121F69647E7020900149
:100AD000D4E04408F09001B8E06010E4F0C294C2A1
:100AE0008A000000000000D294D28A7F01227F0099
:100AF00022EDC394105008121E117401121FAF9002
:100B000001D4E054F0F0900001E0FDB40107900141
:100B1000D4E04401F0EDB402079001D4E04402F0C7
:100B20009001B8E0701004F0C294C28A0000000086
:100B30000000D294D28A1227967F01221227967F34
:100B40000022F583E0FFA3E0900261CFF0A3EFF075
:100B500075F02FEBA4248DF582E5F03400F583E0E9
:100B6000FFA3E0900263CFF0A3EFF0EB75F022A4B7
:100B70002407F582E5F03400F583E0FCA3E0FDA353
:100B8000E0FEA3E02290025CE0FB75F022A42407C3
:100B9000F582E5F03400F583A3A3E0FEA3E0FFEBCC
:100BA00075F02FA4248DF582E5F03400F58322E062
:100BB000FEA3E0FFE475F022EBA4240BF582E5F040
:100BC0003400F583E0F8A3E0F9A3E0FAA3E0FB2208
:100BD00025E02431F582E43423F583E493FC7401A9
:100BE00093FDEF75F012A42406F582E5F03401F5CB
:100BF000832290025CE0FF75F02FA42469F582E562
:100C0000F03400F583E4F0A3F0EF75F022A4240B98
:100C1000F582E5F0340022F583E493FC740193FD42
:100C200075F008EFA42432F582E5F03401F583EC89
:100C3000F0A3EDF0EF25E02451F582E43423F583B1
:100C4000E493FC740193FD75F002EFA422F5831286
:100C5000218A90025CE0FB75F022A42407F582E56E
:100C6000F03400F5832290025CE0FF75F02FA4249D
:100C70006DF582E5F03400F583E4F0A3F0EF75F054
:100C80002FA4248FF582E5F03400F58322A3F090A1
:100C9000025CE0FF75F02FA42290025CE075F02268
:100CA000A42403F582E5F034002290025CE0FF7595
:100CB000F022A42421F582E5F03400F5832290028D
:100CC0005DE0FEA3E0FF75F02F90025CE0FDA42242
:100CD000F0A3F0A3F0A3F0A3F0A3F0A3222496F5D1
:100CE00082E5F03400F5837401F075F02FEFA42451
:100CF00097F582E5F03400F58322244AF582E5F089
:100D00003401F583ECF0A3EDF0EF25E02275F02F30
:100D1000EDA4246BF582E5F03400F583E0FEA3E05A
:100D20002290025CE075F02F22A42469F582E5F0A0
:100D30003400F583E4F0A3F022F075F022EFA42450
:100D400023F582E5F03400F58322C39BFFEE9AFE83
:100D5000ED99FDEC98FCE47B02FAF9F80220D4EB63
:100D600075F02FA4247BF582E5F034002290000278
:100D7000E0FF90025CE022E0FCA3E0FDC3EF9DFFFA
:100D8000EE9CFE2275F02FA42483F582E5F034005A
:100D900022F583E0FCA3E02275F02FEDA4246DF58D
:100DA00082E5F0340022E4F0A3F075F022EFA424F1
:100DB0001FF582E5F0340022746D2BF582E43401D6
:100DC000F5832274A72BF582E43401F58322FFE03A
:100DD00034FEFE7C007D0A022005FDECF0EDA3F060
:100DE000900263E0FCA3E0FDEC22EEF0A3EFF090B4
:100DF000025CE022F583A3A3E0FEA3E022E4EFF08F
:100E000075F022EB22A42495F582E5F03400F583F9
:100E100022900259E0FBA3E0FAA3E0F922E0FEA34E
:100E2000E0C39D22A42496F582E5F03400F58322E8
:100E30009001BAE024C1F582E43401F5832275F013
:100E40002FA42485F582E5F034002275F02FA42428
:100E500091F582E5F03400222456F582E5F0340164
:100E6000F583ECF0A3EDF00F2290025CE004F02299
:100E700090025CE075F02222C3EF9BFFEE9AFE2207
:100E80007F8C7E3CFDFC90002922E493FE7401934C
:100E9000FFE4FCFDC3022166A42469F582E5F03479
:100EA00000222444F582E5F03401222450F582E545
:100EB000F0340122F583EE8FF002206C246BF58272
:100EC000E5F03400222487F582E5F0340022C39B4C
:100ED000FBEE9AFAED99F9EC98F822E0FEC8EFC81B
:100EE0000822FF7808022177C8ECC8C9EDC9CAEE0C
:100EF000CACBEFCB2225E025E02478F582E434014B
:100F00002225E025E024AAF582E4340122E49001C0
:100F1000C8F0A3F022F583EEF0A3EFF0222401FF46
:100F2000E43EFEE43DFDE43C22E47F707E17FDFCE0
:100F300022FFEFF0900261E0FCA3E0222FFFEA3EE7
:100F4000FEE93DFDE83C22902EC97420F02290017C
:100F50006CE0FF75F002A422A42407F582E5F034CA
:100F6000002290025DF0A3F022BB010689828A83F1
:100F7000E0225002E722BBFE02E32289828A83E458
:100F80009322BB010CE58229F582E5833AF583E0E3
:100F9000225006E92582F8E622BBFE06E92582F802
:100FA000E222E58229F582E5833AF583E49322BBC8
:100FB000010989828A83F8E028F022500327F7226A
:100FC000BBFE05F8E328F3228A838982F8E493289C
:100FD00022BB010689828A83F0225002F722BBFEDF
:100FE00001F322F8BB010DE58229F582E5833AF58C
:100FF00083E8F0225006E92582C8F622BBFE05E907
:101000002582C8F222EF8DF0A4A8F0CF8CF0A4289E
:10101000CE8DF0A42EFE22BC000BBE0029EF8DF079
:1010200084FFADF022E4CCF875F008EF2FFFEE332B
:10103000FEEC33FCEE9DEC984005FCEE9DFE0FD5DA
:10104000F0E9E4CEFD22EDF8F5F0EE8420D21CFEAE
:10105000ADF075F008EF2FFFED33FD400798500617
:10106000D5F0F222C398FD0FD5F0EA22C5F0F8A31F
:10107000E028F0C5F0F8E582158270021583E038AB
:10108000F022A3F8E0C5F025F0F0E58215827002A9
:101090001583E0C838F0E82275F008758200EF2F5C
:1010A000FFEE33FECD33CDCC33CCC58233C5829B2E
:1010B000ED9AEC99E58298400CF582EE9BFEED9A54
:1010C000FDEC99FC0FD5F0D6E4CEFBE4CDFAE4CCF0
:1010D000F9A88222B800C1B90059BA002DEC8BF0F2
:1010E00084CFCECDFCE5F0CBF97818EF2FFFEE33AF
:1010F000FEED33FDEC33FCEB33FB10D703994004DA
:10110000EB99FB0FD8E5E4F9FA227818EF2FFFEE00
:1011100033FEED33FDEC33FCC933C910D7059BE931
:101120009A4007EC9BFCE99AF90FD8E0E4C9FAE48D
:10113000CCFB2275F010EF2FFFEE33FEED33FDCC2C
:1011400033CCC833C810D7079BEC9AE899400AED16
:101150009BFDEC9AFCE899F80FD5F0DAE4CDFBE4BE
:10116000CCFAE4C8F922EB9FF5F0EA9E42F0E99D43
:1011700042F0E89C45F022E8600FECC313FCED134D
:10118000FDEE13FEEF13FFD8F122ECF0A3EDF0A378
:10119000EEF0A3EFF022A8828583F0D083D08212F4
:1011A00021AD1221AD1221AD1221ADE473E493A360
:1011B000C583C5F0C583C8C582C8F0A3C583C5F083
:1011C000C583C8C582C822EF4E6012EF60010EEDE4
:1011D000BB010B89828A83F0A3DFFCDEFA2289F04F
:1011E0005007F709DFFCA9F022BBFEFCF309DFFC86
:1011F000A9F0223F3F3F3F3F3F3F3F0032000A0000
:1012000032177009C4001E006400320032000A0068
:101210000A000000000000000000000000000101C2
:10122000010D0E0F030405060708090A0B0C000147
:10123000020037003700370037003700370037002B
:1012400037003700370037003700370037003700E6
:101250003700500050005000500050005000500027
:1012600050005000500050005000500050005000FE
:1012700050001E001E001E001E001E001E001E004C
:101280001E001E001E001E001E001E001E001E006E
:101290001E002D002D002D002D002D002D002D00F5
:1012A0002D002D002D002D002D002D002D002D00D6
:1012B0002D007800870078007800780078007800AA
:1012C000780078007800780078007800780078005E
:1012D00078009100A0009100910091009100910090
:1012E0009100910091009100910091009100910076
:1012F00091005F006E005F005F005F005F005F00B5
:101300005F005F005F005F005F005F005F005F00E5
:101310005F002D002D002D002D002D002D002D0033
:101320002D002D002D002D002D002D002D002D0055
:101330002D00FA00FA00FA00FA00FA00FA00FA00AA
:10134000FA00FA00FA00FA00FA00FA00FA00FA00CD
:10135000FA00140014001400140014001400140007
:1013600014001400140014001400140014001400DD
:1013700014C0E0C0F0C083C082C0D0E8C0E0E9C0C3
:10138000E0EAC0E0EBC0E0ECC0E0EDC0E0EEC0E0C1
:10139000EFC0E0D2AF90015CE06003022444900211
:1013A00067742EF0A3E4F0121E30E090016BF09011
:1013B000015DE004F0E05407F0E09021F393902EFB
:1013C000CAF090016BE0FD75F002A4FFAEF0900250
:1013D00068E02FF0900267E03EF0ED9022219390BC
:1013E00001B9F0121C57C083C082121BC4E8C0E0D0
:1013F000900267E475F00212208285F082121D1AB5
:10140000FFE4FCFDD0E0F8EB2FFFEA3EFEED39FDF6
:10141000EC38FCD082D08312218A90015DE07021EB
:101420009001BAE004F0E0FF900002E0FEEF8EF0E1
:1014300084AFF09001BAEFF0700790015C04F08087
:1014400003122796D0E0FFD0E0FED0E0FDD0E0FC14
:10145000D0E0FBD0E0FAD0E0F9D0E0F8D0D0D082F4
:10146000D083D0F0D0E032C0E0C083C082C0D0E8EA
:10147000C0E0E9C0E0EAC0E0EBC0E0EFC0E0D2AF1E
:10148000E5DB30E415E5DB30E10280289001D3E5AF
:10149000DFF0900254E4F0022536E5DB30E5081277
:1014A00030889001D0802BE5DB30E119E5DB20E0CE
:1014B00003022536900256122DD7122DF0121F82EC
:1014C000F5DF022536900254E0700DA3E5DFF090C1
:1014D00002547401F0022536900255E09029E493FD
:1014E000FFB4FF0E9001D3E5DFF0900255E004F069
:1014F000803EEF640F900256702B122DD79002554C
:10150000E0FF122E04540F121FD1900256122DD755
:10151000900255E0FF04F0122E04FFE5DF54F04F77
:10152000121FD1800B122DD7122DF0E5DF121FE311
:101530009001D2E004F075DBFFD0E0FFD0E0FBD0FB
:10154000E0FAD0E0F9D0E0F8D0D0D082D083D0E07B
:1015500032CBEFCB121B9FE0FEA3E0FF75F02FEB29
:10156000A4248BF582E5F03400121D91C39FFFEC9B
:101570009E900265F0A3EFF0EB6401705375F02FBD
:10158000EBA4248FF582E5F03400121B42121EE218
:10159000900224121DFD121C5AA3A3A3E0FFE490A5
:1015A0000225EFF0EB121C0A121B78121EE29002C9
:1015B00026121DFD121C0DF583A3A3A3E0900227A4
:1015C000121F31900228121DDA90022AF0EDA3F0CA
:1015D000EB6402704CEB121E3E121B42121EE2E440
:1015E00090022C121DFE121C5AA3A3A3E0FFE4904C
:1015F000022D121DFE121C0D121B78121EE2E49029
:10160000022E121DFE121C0DF583A3A3A3E090026F
:101610002F121F31900230121DDA900232F0EDA32A
:10162000F0229001E7E0FE6410704EFF900002E0AF
:10163000FDEFC39D40030226C9EF25E024D1F582CA
:10164000E43422121C3E121CFA24B1F582E4342246
:10165000121C3E121EA2121D0224F1F582E4342255
:10166000121C3E121EAB121D022411F582E434231B
:10167000121C17121E5802262CEE6420705DFF907B
:101680000002E0FEEFC39E5040EF25E02451F582BA
:10169000E43422121C3E121CFA2431F582E4342276
:1016A000121C3E121EA2121D022471F582E4342285
:1016B000121C3E121EAB121D022491F582E434224C
:1016C000121C17121E5802267F900146A3E09001BB
:1016D000D8F0900148A3E09001D9F022E490025A9A
:1016E000F0FF900259F0EF14601E14603514604C46
:1016F00014605B2404707490025B7401F0A3742F77
:10170000F0A37458F0022765122DD4900001121F27
:1017100082FED3941F4003122DFD121F696E704B81
:101720008043122DD4900002121F82FED3940640F3
:1017300003122DFD121F696E70318029122DD49075
:101740000003121F82FE121F696E701F8017122D78
:10175000D4900004121F82FE648B6003122DFD12D0
:101760001F696E7006900259E004F00FEF64056087
:10177000030226E6900259E0B40504A37401F09038
:10178000025AE0FD60079001E8E0547FF0CFEDCF12
:1017900022E490015CF0121E30E0FFC39408504236
:1017A000902EC6E054FCF0E04401F0902EC5740188
:1017B000F0C083C082121EDB8002C333D8FCD0820B
:1017C000D083F0902ECD7401F0C083C082121EDB56
:1017D0008002C333D8FCD082D083F0902EC074C175
:1017E000F02274F82FFF902EC6E054FCF0E0440283
:1017F000F0902EC57401F0C083C082121EDB8002FF
:10180000C333D8FCD082D083F0902ECE7401F0C0C8
:1018100083C082121EDB8002C333D8FCD082D08307
:10182000F0EFB40503121F47EFB40603121F47EF92
:10183000B40703121F47902EC074C2F022758A505D
:10184000538AEF90026C7411F090026A7422F09047
:10185000026E7433F090026D7444F075997F759A3E
:1018600080E4FFFEC29620970AD296309705E49056
:10187000026CF00FBF00010EEF640A4E70E675991E
:101880003F759AC0E4FEFF20970690026A7427F025
:1018900020960C90026A7426F02097037428F00FAB
:1018A000BF00010EEF640A4E70DDE4F5AD75AEF0D9
:1018B00075AF09F5AC7589FF75913F75991FF59660
:1018C00075931FF59BF595F592F59A75800CF58843
:1018D000F590D28AD29490026B04F022E4FFFE903D
:1018E0000261F0A3F0A3F0F9FDFC900002E0FBEC34
:1018F000C39B5051EC121BE3E0FAA3E0FBD3940F1F
:10190000EA94004006900262E004F0D3EB942DEAE2
:1019100094004006900263E004F0D3EB9437EA941D
:1019200000400109D3EB9441EA940040010DD3EB50
:101930009FEA9E400D900261ECF0121BE3E0FEA3D3
:10194000E0FF0C80A5900262E09001BBF090026382
:10195000E09001BCF0A3E9F0A3EDF0900261E0900B
:10196000016CF022022B86E493A3F8E493A34003D6
:10197000F68001F208DFF48029E493A3F8540724E9
:101980000CC8C333C4540F4420C8834004F45680A9
:101990000146F6DFE4800B0102040810204080902D
:1019A0002D9AE47E019360BCA3FF543F30E50954B7
:1019B0001FFEE493A360010ECF54C025E060A84051
:1019C000B8E493A3FAE493A3F8E493A3C8C582C848
:1019D000CAC583CAF0A3C8C582C8CAC583CADFE91D
:1019E000DEE780BE0FFFFF00000000000000FFFFE9
:1019F000FFFFFFFFFFFFFF000000000000000000EE
:101A000000000000000000000000000000000000D6
:101A100000000000000000000000000000000000C6
:101A200000000000000000000000000000000000B6
:101A300000000000000000000000000000000000A6
:101A40000000000000000000000000000000000096
:101A50000000000000000000000000000000000086
:101A600000000000902EC0E4F0902ECB74F1F090B6
:101A70002F58E0540F24F0902EC8F0902ECC7448CC
:101A8000F0902EC9742AF0A37408F0902E4074814F
:101A9000121CD0F0A3F0A304121CD07402F0A374A3
:101AA00081F0902EC67415F0902EC17490F0A3743E
:101AB00001F0A37420F0A37407F043E310122F4940
:101AC000900002EFF022123023EF600122122E4527
:101AD000EF6001229001CDE0248F600C24F3702A86
:101AE000122ED312300B803B122FB8900167E0709A
:101AF00002A3E070057F03122EFD900168E004F060
:101B00007021900167E004F0801912300B9001CD34
:101B1000E0FF122F957F04122C79EF6006122791B7
:101B20007F02227F04227E007F807D007B017A017C
:101B300079D41221C79001D47408F09001D67401B1
:101B4000F09001E674ABF09001E87481F090026CC3
:101B5000E09001DAF090026AE09001DBF090026E12
:101B6000E09001DCF090026DE09001DDF01226DCE7
:101B70009001D1E060089001D57413F08005E490E5
:101B800001D5F0022CC5752001122C2A53A87F1212
:101B9000283D12307012104E123063122FD743A816
:101BA0008012102EEF24E0600E24A06010247070CC
:101BB00018C283C2828012D283D282800C12304437
:101BC0007587037586011230701226227B017A0216
:101BD0007969121066EF80C9C0E0C0F0C083C0828E
:101BE000C0D0E8C0E0ECC0E0EDC0E0EEC0E0EFC087
:101BF000E0D2AF900163E004F0C3940A4012E4F035
:101C00009001C4121B7A121F1DFC9001C412218A7C
:101C1000D0E0FFD0E0FED0E0FDD0E0FCD0E0F8D096
:101C2000D0D082D083D0F0D0E0329002597410F03E
:101C3000A3E4F0A3743FF0A374FFF0E4FDFCF9907B
:101C40000259E0FEA3E02DF582EE3CF583E493FF1C
:101C500069F90DBD00010CBC2FE5BDFFE290025BF0
:101C6000E0FEA3E0F5828E83E4936970069001D1D3
:101C700004F022E49001D1F022900261EFF0C394CD
:101C80000B503FE0FF246D121DBBE06035EF121ECC
:101C9000F5121BC29001C4121B7A121ECE90026173
:101CA000E025E024FBF582E43421F583121E8A400E
:101CB0000E900261E0246D121DBBE4F07F01227FD3
:101CC00000227F002290014CA3E090022CF09001B2
:101CD0004EA3E090022DF0900146A3E090022EF07A
:101CE000900148A3E090022FF0900152A3E09002EF
:101CF00030F0900154A3E0900231F090233374014E
:101D000093900232F0902335740193900233F022C5
:101D1000E4900261F0122E7AEF647F60012290015C
:101D20006AE0701B04F0121F4E244AF582E5F0347D
:101D300001121D91121BE1121E1DEE9C4015221274
:101D40001F4E121EA2121D91121BE1121E1DEE9CAF
:101D50004001227F7E22E4900167F0A3F09001CB46
:101D6000F0A3F0900164F0A3F09001BFF0A3F09015
:101D70000001747EF0121F0DFB900002E0FFEBC328
:101D80009F5016121D5FF58312219600000000EB94
:101D9000121D84121D320B80E0224101B800410166
:101DA000BA004101630041000000C109410169001E
:101DB000C1084101CA0041025400410255004201DC
:101DC000CE00004101D0004101D2004101D10041CB
:101DD00001D3100090025BE0FBA3E0FAA3E0F9223C
:101DE000E4F5DA75DA4043DA2075D74075DA58221F
:101DF000900255E0FF04F08F827583002290025A12
:101E00007401F022E92FF9E43AFA021F69900261A5
:101E1000EFF0E0FF24A7121DC6E06026EF121F01BD
:101E2000121BC29001C4121B7A121ECE9022051200
:101E30001E8A400E900261E024A7121DC6E4F07FC6
:101E400001227F0022D39001A6E094009001A5E03A
:101E500094004023D3900165E0940A900164E094DB
:101E600000500E900168E0940A900167E0940040F1
:101E7000061227917F02227F0022900001E0FFC31B
:101E800094105021A3E0FEEFC39E5019900001E092
:101E900075F002A4121EAB121D91121BE1121E1D41
:101EA000EE9C4001227F7F227E017F607D007B01CE
:101EB0007A0079031221C7122B269001E77410F0E3
:101EC0001226229001CD747EF0900001F0E4900182
:101ED0006AF022900001747EF07F041230149001A9
:101EE000C8E07002A3E060147F02122EFD7F021290
:101EF0002C79EF6007121F0D90016AF022CBEFCB17
:101F0000EBD3940B501C121DB8E07016121DB87460
:101F100001F09001C4121B7AFFEB121EF5F583123B
:101F2000218A22CBEFCBEBD39403501C121DC3E0CC
:101F30007016121DC37401F09001C4121B7AFFEBDE
:101F4000121F01F58312218A22902EC5E4F0902EF3
:101F5000CDF0A3F0FFFEEF90221193600974C12E23
:101F6000121E36EFF00E0FEFB410EBCFEECF229033
:101F700001667402F053A87F12279643A82043A855
:101F800080E49001A5F0A3F09001A5F0A304F0E493
:101F90009001A4F022CAEFCAEAC39410501990002D
:101FA00001E06A60127F04122EFD900001EAF090B9
:101FB00001C8E4F0A304F0229001C8E07002A3E09D
:101FC00060147F02122EFD7F02122C79EF6007123F
:101FD0001F0D90016AF0229002567401F0A3740163
:101FE000F0A374D4F0122DE043A90875B80875F871
:101FF00008229001C4122196000000007E007F0B91
:102000007D007B017A01796D0221C7E4900167F0C0
:10201000A3F07F03EFD3940B5008746D2F121DBBF8
:10202000E4F0227F01122C79EF60061227917F02E3
:10203000227F00227F0A122C79EF6007E49001A52D
:10204000F0A3F022E4F58D902ECBF0902ECEF0F59B
:1020500086F58F22EFD39403500874A72F121DC664
:10206000E4F02275BA9275BEF9E4F5BF43AA0222E4
:10207000122A649001667401F0022EA8EE30E70780
:10208000C3E49FFFE49EFE22122DE0220000000028
:102090000000000000000000000000000000000040
:1020A0000000000000000000000000000000000030
:1020B0000000000000000000000000000000000020
:1020C0000000000000000000000000000000000010
:102FF000000000000000000000000000000000E7EA
:00000001FF
