:1000000078FFE4B8200118F6D8F99000007F007E50
:1000100007E4F0A3DFFCDEFA758121022773122BBF
:10002000119001B3E06F6002EFF02202234AE4FD79
:100030009001B6E060119001B9E0FE54F0FDEE547D
:100040000FF0E49001B6F0CFEDCF2202245775B245
:100050009275B6F9E4F5B743B20143AA01022E1234
:10006000000000022A2490023EEBF0A3EAF0A3E98C
:10007000F0900166E024FE601014607714700302B3
:1000800012F3240370EB122D4953A9F790015CE0A1
:10009000604F90019EE004F0E4900241F012202DA8
:1000A000C39F503A121EED121DA500000000EBB4D4
:1000B0000110E49001C3F0A3F09001C77404F0E4D0
:1000C000A3F0900241E0B40210E49001C5F0A3F067
:1000D0009001C97404F0E4A3F012212580BF121F1F
:1000E0006090019EE0C394024087122B59900166F4
:1000F0007403F090015CE07003021071E49002411F
:10010000F012202DFBC39F40030211D6122037F5B9
:1001100083E475F001121C6D75F02FEF12203C1274
:100120001EE064014E700B121E2BFF12200CF58393
:10013000802B121FCE122010F583C083C082121EA6
:100140003AFF900241E0121EEF121F09FBEF2BFF56
:10015000EE3AFEED39FDEC38FCD082D083121D99C9
:10016000121E45EE122003FB121E2CFF75F022EB2F
:10017000121E8A121EE71220E0FF75F02FEB121FED
:100180002FF583EE122003FB701CE0FF1220E71214
:100190001F4A75F022EF121EF21220E0241EFFE427
:1001A0003E900248801875F022EB121EF21220E0F9
:1001B000FF90024812209CEB1220E7F583EEF0A39B
:1001C000EFF0900241E0121EEF121DA500000000AA
:1001D000122125021101E490015CF0C3900084E03B
:1001E000940A900083E0940050030212EDE4900220
:1001F00041F012202DFBC39F40030212C175F02F66
:10020000EBA4247FF582E5F03400F583121DA500F0
:1002100000000075F02FEBA42493F582E5F0340084
:10022000121F4A121FCE12203C121EE0FBCAEECA59
:10023000E4F9F8121FCE122010121E38FF121CD53E
:10024000121FB6248BF582E5F0340012212C121F08
:10025000C0121F4AED12200DF583121DA5000000EB
:1002600000900241122037121F4A75F02FEF122022
:10027000A9E4F075F022EF121F84E4F075F022EF8C
:10028000A42422F582E5F03400F583E4121FD6742D
:1002900005F075F022EFA42424F582E5F03400F592
:1002A00083740AF075F02FEF121F90740AF0EF12AA
:1002B0001E2CFF122058F583121D991221250211C0
:1002C000F2900002E075F00AA4900160F043A908E2
:1002D0009001667404F0E4FF122D2390019FE070FA
:1002E00002A3E060057F09122D230219E3121F65A6
:1002F000021071122E5490015CE070030210719094
:100300000160E0D394004006E014F002173AE49054
:100310000241F012202DF9C39F400302173A75F0F5
:1003200022E9121E8A1220E0FBCAEECA75F022E909
:10033000121EF21220E0C39BFFEE9A900244F0A33B
:10034000EFF0E9700302150C1219E9C39FEC9E50FF
:1003500024121F7C7401121FD67405F075F022EF71
:10036000121E2FFF75F022EB121E8A121D9975F0D6
:100370002FEB0213E8121F7CE0607675F022EF127B
:100380001EFEFB75F022EF121E2FFFC3121D75908B
:100390000241E0FF75F0225019121EFEFB75F0229B
:1003A000EF121E2F121FE7122134121EFE1221C35C
:1003B0008028121EF2121F09FB75F022EF12205F37
:1003C000121E38121FE7122169122058121E38C35C
:1003D0009BFFEE9AFEED99FDEC98FC900241E01235
:1003E0001E87121D99121FCE122069121F4A122158
:1003F00076900241E0FB75F02212204E121E56123A
:10040000209C122E8B900241E0FB75F002A4122179
:1004100058122026D39FEC9E50030214ED121E5F4B
:1004200012217DFCFD75F022EB121E8A121F09FBC2
:10043000D3121D75122134405A121E8AC083C08205
:10044000121E3AFFECC0E0EDC0E0EEC0E0EFC0E00D
:10045000900241E0121E60E0FEA3E0FBCAEECAE497
:1004600012213412204E121E38C39BFFEE9AFEED6D
:100470009400FDEC9400121FF2122169D0E0FFD02D
:10048000E0FED0E0FDD0E0FC122110ED99FDEC98EB
:100490000214D9121E8AC083C082121F09FBE8C051
:1004A000E0E9C0E0EAC0E0EBC0E0900241E0FB120E
:1004B0001E6012217D75F022EB121E8A121F091296
:1004C000210FE499FDE4121FF1D0E0FBD0E0FAD057
:1004D000E0F9D0E0F8EB1221C3FCD082D083121DEA
:1004E00099121FCE122069121F4A122176121F7C08
:1004F000E06019121FD7E0D3940012213440081293
:100500001FDBE014F08005121F84E4F0121FAE120E
:10051000206A12216175F02FED122069121EE0D3BE
:10052000940AEE64809480400F121E6FC083C082D4
:10053000121E3A1221A0802C121FCE122069121E08
:10054000E0C394F6EE6480947F5021121E6FC08346
:10055000C082121E3AC39401FFEE9400FEED940097
:10056000FDEC9400FCD082D083121D99121E45E050
:10057000FCA3E0FDC3EF121FFC700302160B12195F
:10058000E9C39FEC9E502612213C501575F022EBDA
:10059000121E4DEE122003FF75F02F121F90740AE9
:1005A000F0900241E0121F3E122176803790024403
:1005B000E0FEA3E0FF122E8B75F008121FB9243263
:1005C000F582E5F03401F583E0FAA3E0C39FEA9EEB
:1005D000401275F02FED1220B5E06008121E45EEB6
:1005E000F0A3EFF0900241E0FF75F02F1220B5E08C
:1005F0006019121F9EE0D39400121FCE4008121FF4
:10060000A2E014F080051220B5E4F0121FAE122013
:10061000F91221611220F4121EE0D3940AEE6480D4
:1006200094804010121F3975F02FEF121E63E4758D
:10063000F001801E1220F4121EE0C394F6EE6480D6
:10064000947F5011121F3975F02FEF121E6374FF43
:10065000F5F0121C6D900241E0FF121F2C122026B3
:10066000FD75F02FEF121E63E0FEA3E0C3121FFC26
:10067000FF6079122118121EE0D3940FEE6480946B
:10068000804022121FCE1220A97401F012213C508A
:100690001275F02FEF121E63E0FCA3E0FD121F2B7A
:1006A000121F748031900241E0FF122118F583E09F
:1006B000FCC3EC64809480502B900245E0940012BF
:1006C000213D401275F02FEF121E63E0FCA3E0FD08
:1006D000121F2B121F74121FCE122077121F4A12E4
:1006E00021768008121FCE1220A9E4F0121FAE124C
:1006F0002078122161122073121EE0D394FAEE6466
:10070000809480400B121F14F583E475F00180196A
:10071000122073121EE0C39406EE6480947F500C86
:10072000121F14F58374FFF5F0121C6D900241E066
:10073000FF122601122125021313E4900241F01248
:10074000202DFEC39F40030218E9EE1220E712207D
:1007500026FD900090E02DFD90008FE03CFCEE1215
:1007600020D3121F74900241E0FF1220D3122026E2
:10077000FD121F2B121EE0C39DFFEE9CFE121FB642
:1007800012211C12212C75F02FED121E6312217DF7
:10079000FCFD900241E0121E87121F09FBC3121DCF
:1007A000755003021845900241E0FB121E8712208B
:1007B000E02400FFEE3404FE121E5F12209C900223
:1007C00041E0FD12210212212C75F022ED121E8A49
:1007D000A3A3E0FEA3122030FD121E60E0FAA3E006
:1007E00012210F121FC0F583EE122003FF1221AC5D
:1007F00075F012121EC2121ED8D39DEE9C900241BB
:10080000E0401F1221ACE493FC740193121ED2C38A
:100810009DFFEE9CC313FEEF13FFED2FFFEC3EFE9A
:100820008019121FC1122026FDE4121B177BA47A27
:1008300070797D783F121A0C121B50900241E01221
:100840001FC102189F900241E0FB121E6012217D21
:1008500075F022EB121E8A121F0912210FE499FD76
:10086000E498FCE4FB7A04F9F8D3121D7590024178
:10087000E0FF75F012402D121FC4121E80A3A3E0EA
:10088000FEA3122030FD121E60E0FAA3E0C39FFF1A
:10089000EA9EFEC3E49FFF74049EFEED1221021245
:1008A000212C800D121FC4121F4AEF122102121FA9
:1008B0004A900241E0FB121E2CFF75F022EB122041
:1008C0005FF583121EE7121DA50000000075F022DF
:1008D000EBA4240FF582E5F03400F583121DA5008A
:1008E00000000012212502173F900118E0541F90CC
:1008F00001C3F0900118A3E09001C4F090012AE038
:10090000541F9001C5F090012AA3E09001C6F09019
:100910000041E0541F9001C7F0900041A3E0900116
:10092000C8F0900063E0541F9001C9F0900063A3E9
:10093000E09001CAF0121F6090019FE07002A3E0F6
:1009400060030210711226AF12101E1229189001B6
:1009500066EFF0640460030219E3900001E0FF1207
:1009600020C1EF121C39900001E0FED39410402CFE
:10097000121F651220C1121BD1647E701C9001B938
:10098000E04408F09001A3E0600CE4F0C2940000A1
:1009900000000000D2947F01227F0022EEC3941059
:1009A00050081220C17401121C179001B9E054F0D4
:1009B000F0900001E0FDB401079001B9E04401F0BE
:1009C000EDB402079001B9E04402F09001A3E07099
:1009D0000C04F0C294000000000000D294121F65C5
:1009E0007F0122121F657F0022900244E0FEA3E0F7
:1009F000FF122E8B900241E0FB75F008A42432F523
:100A000082E5F03401F583E0FCA3E022EC4D6011B7
:100A1000E8497017ED33EC3304600DE4FCFFFEFD94
:100A200022E933E8330470F8021BBC121B87580418
:100A30006009E4CC24815006285009021BC62840D6
:100A400003021BC3C0E0EB4A7044B98006D0E0FB50
:100A5000021BB2EF4E701CBD8008EBFFEAFEE9FD01
:100A600080EBE98DF0A4FEE5F0021AF5E9CDF9EA94
:100A7000FEEBFFEF89F0A4FCE5F0CE89F0A42EFF99
:100A8000E435F0CD89F0A42DFEE435F08067EF4E1B
:100A90007005BD80D780C3EF8BF0A4ACF0EE8BF077
:100AA000A42CFCE435F0F8EF8AF0A42CE5F038FC37
:100AB000E433CB8DF0A42CFCE5F03BF8EE8AF0A4F7
:100AC0002CFCE5F038F8E433CF89F0A42CFCE5F0F9
:100AD00038CF3400CE89F0A42FFFE5F03EFEE4339A
:100AE000C98DF0A42EFEE5F039CD8AF0A42FFFE5E4
:100AF000F03EFEE43DFD33D0E0FB50070BBB000FA2
:100B0000021BC6EC2CFCEF33FFEE33FEED33FD028F
:100B10001B9E75F020800E75F010800575F0087D25
:100B2000007E007F003392D530D503121D67EC3371
:100B30004010EF33FFEE33FEED33FDEC33FCD5F028
:100B4000ED22E5F0247EA2D513CC92E7CDCEFF2294
:100B5000EDD2E7CD33EC3392D524814006E4FFFE9D
:100B6000FDFC22FCE4CFCECDCC24E0501174FF80FC
:100B7000EDC3CC13CCCD13CDCE13CECF13CF047099
:100B8000F030D5DE021D67E9D2E7C933E833F892C9
:100B9000D5EDD2E7CD33EC33FC5002B2D522EC30A8
:100BA000E7100FBF000C0EBE00080DBD00040BEBDC
:100BB0006014A2D5EB13FCED92E7FD2274FFFCFD5F
:100BC000FEFF22E480F8A2D574FF13FC7D80E48050
:100BD000EFBB010689828A83E0225002E722BBFE36
:100BE00002E32289828A83E49322BB010CE58229F5
:100BF000F582E5833AF583E0225006E92582F8E69E
:100C000022BBFE06E92582F8E222E58229F582E58B
:100C1000833AF583E49322BB010989828A83F8E051
:100C200028F022500327F722BBFE05F8E328F32221
:100C30008A838982F8E4932822BB010689828A8309
:100C4000F0225002F722BBFE01F322F8BB010DE5B2
:100C50008229F582E5833AF583E8F0225006E925FA
:100C600082C8F622BBFE05E92582C8F222C5F0F84B
:100C7000A3E028F0C5F0F8E582158270021583E044
:100C800038F022A3F8E0C5F025F0F0E58215827077
:100C9000021583E0C838F0E82275F008758200EF8D
:100CA0002FFFEE33FECD33CDCC33CCC58233C5829E
:100CB0009BED9AEC99E58298400CF582EE9BFEED57
:100CC0009AFDEC99FC0FD5F0D6E4CEFBE4CDFAE426
:100CD000CCF9A88222B800C1B90059BA002DEC8B1A
:100CE000F084CFCECDFCE5F0CBF97818EF2FFFEEF6
:100CF00033FEED33FDEC33FCEB33FB10D7039940AF
:100D000004EB99FB0FD8E5E4F9FA227818EF2FFFEE
:100D1000EE33FEED33FDEC33FCC933C910D7059B30
:100D2000E99A4007EC9BFCE99AF90FD8E0E4C9FA8C
:100D3000E4CCFB2275F010EF2FFFEE33FEED33FD18
:100D4000CC33CCC833C810D7079BEC9AE899400A3B
:100D5000ED9BFDEC9AFCE899F80FD5F0DAE4CDFBB9
:100D6000E4CCFAE4C8F922C3E49FFFE49EFEE49DCC
:100D7000FDE49CFC22EB9FF5F0EA9E42F0E99D42E7
:100D8000F0E89C45F022E8600FECC313FCED13FD86
:100D9000EE13FEEF13FFD8F122ECF0A3EDF0A3EE7B
:100DA000F0A3EFF022A8828583F0D083D082121DB9
:100DB000BC121DBC121DBC121DBCE473E493A3C580
:100DC00083C5F0C583C8C582C8F0A3C583C5F0C577
:100DD00083C8C582C822EF4E6012EF60010EEDBBE2
:100DE000010B89828A83F0A3DFFCDEFA2289F050AE
:100DF00007F709DFFCA9F022BBFEFCF309DFFCA921
:100E0000F022F583E0FFA3E090024ACFF0A3EFF0D9
:100E100075F02FEBA4248DF582E5F03400F583E026
:100E2000FFA3E090024CCFF0A3EFF0EB75F022A40B
:100E30002407F582E5F03400F583E0FCA3E0FDA390
:100E4000E0FEA3E022900241E0FB75F022A424071B
:100E5000F582E5F03400F583A3A3E0FEA3E0FFEB09
:100E600075F02FA4248DF582E5F03400F5832290EF
:100E70000241E0FF75F02FA42469F582E5F034000B
:100E8000F583E4F0A3F0EF75F022A4240BF582E5DE
:100E9000F03400F58322F583E493FC740193FD752F
:100EA000F008EFA42432F582E5F03401F583ECF08C
:100EB000A3EDF0EF25E0242AF582E43423F58375D1
:100EC000F002E493FC740193FDEFA422F583E0FCAF
:100ED000A3E0FD75F012EFA42406F582E5F03401DD
:100EE000F583E0FEA3E022121D99900241E0FB751C
:100EF000F022A42407F582E5F03400F58322A4242F
:100F000003F582E5F03400F583E0F8A3E0F9A3E00F
:100F1000FAA3E022900241E0FF75F02FA4246DF5C2
:100F200082E5F03400F583E4F0A3F0EF75F02FA430
:100F3000248FF582E5F0340022900241E0FF75F045
:100F40002FA4246BF582E5F03400F583E4F0A3F0E0
:100F500022F0A3F0A3F0A3F0A3F0A3F0A3F0A32248
:100F6000E490015CF0902EC074C2F022244AF58215
:100F7000E5F03401F583ECF0A3EDF022900241E0BE
:100F8000FF75F022A42421F582E5F03400F58322D8
:100F9000A42496F582E5F03400F5837401F075F031
:100FA0002FEFA42497F582E5F03400F58322900218
:100FB00044E0FEA3E0FF75F02F900241E0FDA42283
:100FC000ED75F012A42406F582E5F03401229002BA
:100FD00041E075F02F22F075F022EFA42423F58272
:100FE000E5F03400F58322C39BFFEE9AFEED99FDF8
:100FF000EC98FCE47B02FAF9F8021CD59DFFEE9C0C
:10100000900244F0A3EFF0900241E022EB75F02F44
:10101000A4247BF582E5F034002275F02FA4248B04
:10102000F582E5F03400F583E0FCA3E022900002B5
:10103000E0FF900241E022E0FF75F02FA42483F549
:1010400082E5F0340022FFE4EFF075F022EBA424F7
:101050000BF582E5F0340022900241E075F022A405
:101060002403F582E5F0340022A42469F582E5F03A
:1010700034002275F02FEDA4246DF582E5F03400E4
:1010800022746C2BF582E43401F58322FDECF0ED43
:10109000A3F090024CE0FCA3E0FDEC22E0FCA3E016
:1010A000FDC3EF9DFFEE9CFE22A42495F582E5F0A2
:1010B0003400F58322A42496F582E5F03400F5830C
:1010C0002290023EE0FBA3E0FAA3E0F922FF7808B9
:1010D000021D8675F02FA42485F582E5F0340022E8
:1010E000A3A3E0FEA3E02275F02FA42491F582E5EE
:1010F000F034002275F02FEDA4246BF582E5F03476
:10110000002275F022A4241FF582E5F0340022FBB2
:10111000C3EF9BFFEE9AFE2275F02FA42487F58281
:10112000E5F0340022900241E004F022F583EEF075
:10113000A3EFF022900241E075F02222C390024416
:10114000E064809480222444F582E5F03401222476
:1011500050F582E5F03401222456F582E5F03401A1
:1011600022F583EE8FF0021C6DC8ECC8C9EDC9CA28
:10117000EECACBEFCB22900244F0A3F022E0FEA314
:10118000E0FFE42225E025E02476F582E434012224
:10119000E49001AEF0A3F022E4EFF075F022EB2230
:1011A0002401FFE43EFEE43DFDE43C2225E0240A68
:1011B000F582E43423F58322FFEFF090024AE0FC4D
:1011C000A3E0222FFFEA3EFEE93DFDE83C223F3F3F
:1011D0003F3F3F3F3F3F0032000A0032177009C4D3
:1011E000006400320032000A000A00000000000023
:1011F000000000000000000101010D0E0F030405B6
:10120000060708090A0B0C00010200280028002824
:10121000002800280028002800280028002800288E
:101220000028002800280028002800410041004133
:1012300000410041004100410041004100410041A6
:1012400000410041004100410041000F000F000F2C
:10125000000F000F000F000F000F000F000F000F16
:10126000000F000F000F000F000F000F000F000F06
:10127000000F000F000F000F000F000F000F000FF6
:10128000000F000F000F000F000F005A005A005A05
:10129000005A005A005A005A005A005A005A005A7E
:1012A000005A005A005A005A005A00730073007323
:1012B0000073007300730073007300730073007396
:1012C000007300730073007300730041004100411C
:1012D0000041004100410041004100410041004106
:1012E00000410041004100410041000F000F000F8C
:1012F000000F000F000F000F000F000F000F000F76
:10130000000F000F000F000F000F00AA00AA00AA94
:1013100000A000A000A000A000A000A000A000A0CD
:1013200000A000A000A000A000A000140014001461
:10133000001400140014001400140014001400140D
:1013400000140014001400140014C0E0C0F0C083A6
:10135000C082C0D0E8C0E0E9C0E0EAC0E0EBC0E095
:10136000ECC0E0EDC0E0EEC0E0EFC0E0D2AF900135
:101370005CE06003022434900252742EF0A3E4F087
:1013800090015DE004F09021CE93902ECAF0900180
:101390005DE05407F0900253E0241AF0900252E00E
:1013A0003400F0900251740DF0900251E0FFD3949C
:1013B0000F5053EF9021EA936044900251E0902146
:1013C000FA93900250F0121EEFC083C082121F09E0
:1013D000FBE8C0E0900252E475F002121C8385F035
:1013E00082121EE0FFE4FCFDD0E0F8EB2FFFEA3EA6
:1013F000FEED39FDEC38FCD082D083121D999002AD
:1014000051E004F080A390015DE07025900250F05F
:10141000900002E0FE900250E0FFC39E500B122BA2
:10142000A0900250E004F080E790015C7401F0802D
:1014300003121F65D0E0FFD0E0FED0E0FDD0E0FC5D
:10144000D0E0FBD0E0FAD0E0F9D0E0F8D0D0D08204
:10145000D083D0F0D0E032C0E0C083C082C0D0E8FA
:10146000C0E0E9C0E0EAC0E0EBC0E0EFC0E0D2AF2E
:10147000E5DB30E415E5DB30E10280259001B8E5DD
:10148000DFF0900239E4F002251BE5DB30E50812BD
:101490002E979001B68029E5DB30E117E5DB30E0DF
:1014A0007A122CFC04F08F82758300121BEAF5DFA0
:1014B00002251B900239E0700DA3E5DFF0900239A0
:1014C0007401F002251B90023AE09027B893FFB414
:1014D000FF0E9001B8E5DFF090023AE004F08035AD
:1014E000EF640F90023B701E122CFF122D1A540F46
:1014F000121C39122CFC04F0122D1AFFE5DF54F0F7
:101500004F121C39800F122CFF04F08F827583005C
:10151000E5DF121C4B9001B7E004F075DBFFD0E073
:10152000FFD0E0FBD0E0FAD0E0F9D0E0F8D0D0D0A6
:1015300082D083D0E0329001CCE0FE6410705BFF7B
:10154000900002E0FDEFC39D40030225F7EF25E088
:1015500024AAF582E43422121EBD121F6CEF25E08E
:10156000248AF582E43422121EBD122146121F7411
:10157000EF25E024CAF582E43422121EBD12214F69
:10158000121F74EF25E024EAF582E43422121E963D
:10159000122158121F740F022540EE64207061FF63
:1015A000900002E0FEEFC39E504DEF25E0242AF5A7
:1015B00082E43422121EBD121F6CEF25E0240AF5CE
:1015C00082E43422121EBD122146121F74EF25E060
:1015D000244AF582E43422121EBD12214F121F74D8
:1015E000EF25E0246AF582E43422121E9612215877
:1015F000121F740F0225A090014AA3E09001BDF0D4
:1016000022CBEFCB121E5FE0FEA3E0FFEB12201A0D
:10161000C39FFFEC9E90024EF0A3EFF0EB640170CD
:1016200044EB121F2C121E021220CD90020912212F
:1016300098121EF2A3A3A3E090020A122046121EE3
:10164000381220CDE490020BEFF0EB121E87A3A31B
:10165000A3E090020C1221B890020D12208C90028F
:101660000FF0EDA3F0EB64027044EB1220D3121ED6
:10167000021220CD900211122198121EF2A3A3A3F0
:10168000E0900212122046121E381220CDE4900281
:1016900013122199121E8AA3A3A3E090021412210F
:1016A000B890021512208C900217F0EDA3F022E4FE
:1016B000FFFE90024AF0A3F0A3F0F9FDFC900002B7
:1016C000E0FBECC39B5052EC121FC1F583E0FAA380
:1016D000E0FBD3940FEA9400400690024BE004F044
:1016E000D3EB942DEA9400400690024CE004F0D332
:1016F000EB9437EA9400400109D3EB9441EA94005B
:1017000040010DD3EB9FEA9E400C90024AECF0752D
:10171000F012121ED7FF0C80A490024BE09001A49F
:10172000F090024CE09001A5F0A3E9F0A3EDF09059
:10173000024AE090016BF0220229D2E493A3F8E47C
:1017400093A34003F68001F208DFF48029E493A319
:10175000F85407240CC8C333C4540F4420C8834032
:1017600004F456800146F6DFE4800B010204081001
:10177000204080902C4BE47E019360BCA3FF543F3B
:1017800030E509541FFEE493A360010ECF54C02539
:10179000E060A840B8E493A3FAE493A3F8E493A329
:1017A000C8C582C8CAC583CAF0A3C8C582C8CAC58D
:1017B00083CADFE9DEE780BE0FFFFF000000000004
:1017C0000000FFFFFFFFFFFFFFFFFF000000000022
:1017D0000000000000000000000000000000000009
:1017E00000000000000000000000000000000000F9
:1017F00000000000000000000000000000000000E9
:1018000000000000000000000000000000000000D8
:1018100000000000000000000000000000000000C8
:1018200000000000000000000000000000000000B8
:101830000000000000000000902EC6E054FCF09074
:101840002EC5E4F0902ECDF0A3F0FFFEEF9021EA3C
:1018500093602A902EC5C083C082E0FD7401C8EF5A
:10186000C8088002C333D8FCFC4DD082D083F090EE
:101870002ECDE04CF0902EC6E04401F00EEF90210A
:10188000F293602A902EC5C083C082E0FD7401C827
:10189000EFC8088002C333D8FCFC4DD082D083F05F
:1018A000902ECEE04CF0902EC6E04402F00E0FEFEA
:1018B000B40899CFEECF2290024AEFF0C3940A50B9
:1018C00054E0FF246C122084E0604AEF122184125D
:1018D0001F07FB9001AA121E3AC39BFBEE9AFAED7A
:1018E00099F9EC98F890024AE025E024D6F582E4D4
:1018F0003421F583E493FE740193FFE4FCFDC312ED
:101900001D75400E90024AE0246C122084E4F07FA2
:1019100001227F00227F0022122E43EF600122125B
:101920002BE2EF6001229001B3E0248F600C24F3DE
:10193000702A122CD2122E2B803B122DD9900167C7
:10194000E07002A3E070057F03122D23900168E090
:1019500004F07021900167E004F08019122E2B90A2
:1019600001B3E0FF122D957F041228B7EF60061235
:101970001F607F02227F0422902EC0E4F0902ECBC5
:1019800074F7F0902F58E0540F24F0902EC8F09088
:101990002ECC7408F0902EC9742AF0A3743FF090F6
:1019A0002E407481121F51F0A304121F51F0902E8B
:1019B000C67465F0902EC17490F0A37401F0A37406
:1019C00020F0A37404F043E310122838900002EFD3
:1019D000F02275200153A87F122C17122E7F122A95
:1019E0007612104E122E72122DB843A88012102EAD
:1019F000EF24E0600E24A0601024707018C283C22F
:101A0000828012D283D282800C122E647587037575
:101A10008601122E7F1225367B017A027958121028
:101A200066EF80C9C0E0C0F0C083C082C0D0E8C00B
:101A3000E0ECC0E0EDC0E0EEC0E0EFC0E0D2AF907F
:101A40000163E004F0C3940A4012E4F09001AA128A
:101A50001E3A1221A0FC9001AA121D99D0E0FFD0DD
:101A6000E0FED0E0FDD0E0FCD0E0F8D0D0D082D0D5
:101A700083D0F0D0E03290023E7410F0A3E4F0A3E3
:101A8000743FF0A374FFF0E4FDFCF990023EE0FE29
:101A9000A3E02DF582EE3CF583E493FF69F90DBDDB
:101AA00000010CBC2FE5BDFFE2900240E0FEA3E088
:101AB000F5828E83E4936970079001BA7405F02271
:101AC000E49001BAF02290014CA3E0900211F09052
:101AD000014EA3E0900212F0900146A3E0900213A1
:101AE000F0900148A3E0900214F0900152A3E0901E
:101AF0000215F0900154A3E0900216F090230C74AC
:101B00000193900217F090230E740193900218F045
:101B100022E490024AF0122CA8EF647F6001229028
:101B2000016AE0701B04F0A3E0FF75F002A4244AF0
:101B3000F582E5F03401121ECCC39DEE9C401722C5
:101B400090016BE0FF75F002A4122146121ECCC377
:101B50009DEE9C4001227F7E22E4900167F0A3F07D
:101B60009001B1F0A3F0900164F0A3F09001A8F00F
:101B7000A3F0900001747EF0122190FB900002E02F
:101B8000FFEBC39F501912200CF583121DA5000016
:101B9000000075F02FEB12203C121F4A0B80DD2253
:101BA000CBEFCBEBB4011B900029121E3A1220CDD3
:101BB0009001E9EFF0900029A3A3A3E0FF9001EAD0
:101BC000EFF0EBB4021B90004B121E3A1220CD90A6
:101BD00001EBEFF090004BA3A3A3E0FF9001ECEF2B
:101BE000F022D39001A0E0940090019FE094004087
:101BF00023D3900165E0940A900164E09400500EB4
:101C0000900168E0940A900167E094004006121F7A
:101C1000607F02227F0022758A50538AEFE4F5AD7F
:101C200075AEC075AF09F5AC75890C7591187599CD
:101C300010F596759318759B107595F3F592759A36
:101C40002F75800CF588F590D294224101A30041B4
:101C500001630041000000C10941016900C1084160
:101C600001B0004102390041023A004201B40000D3
:101C70004101B6004101B7004101B810007E017F6B
:101C8000607D007B017A007903121DD6122D6F90C2
:101C900001CC7410F01225369001B3747EF09000E0
:101CA00001F0E490016AF022900001E0FFC394107B
:101CB000501DA3E0FEEFC39E5015900001E075F0AB
:101CC00002A412214F121ECCC39DEE9C4001227F24
:101CD0007F22900001747EF07F04122E349001AEBA
:101CE000E07002A3E060147F02122D237F0212280D
:101CF000B7EF600712219090016AF02290023BE05A
:101D0000FBA3E0FAA3E0F990023AE0FF22E4F5DA5F
:101D100075DA4043DA2075D74022E92FF9E43AFA20
:101D2000021BD1CBEFCBEBD3940A501C122081E0E5
:101D300070161220817401F09001AA121E3AFFEB76
:101D4000122184F583121D99229001667402F053CA
:101D5000A87F121F6543A82043A880E490019FF04C
:101D6000A3F090019FF0A304F0E490019EF0227E86
:101D7000007F807D007B017A0179B9121DD6900128
:101D8000B97408F0A37405F0A37401F09001CB744A
:101D9000ABF0022AC6CAEFCAEAC3941050199000E9
:101DA00001E06A60127F04122D23900001EAF09096
:101DB00001AEE4F0A304F02290023B7401F0A3749E
:101DC00001F0A374B9F0122D0D75D65075DA584391
:101DD000A90875B80875F808229001AEE07002A352
:101DE000E060147F02122D237F021228B7EF6007F4
:101DF00012219090016AF022EF12201AFDEF121EBC
:101E000060E0FEA3E0C39DFFEE9C900256F0A3EFBE
:101E1000F0229001AA121DA5000000007E007F0A9A
:101E20007D007B017A01796C021DD6E4900167F098
:101E3000A3F07F03EFD3940A5008746C2F12208410
:101E4000E4F0227F011228B7EF6006121F607F02C4
:101E5000227F00227F091228B7EF6007E490019FDC
:101E6000F0A3F022E4F58D902ECBF0902ECEF0F57D
:101E7000862275BA9275BEF9E4F5BF43AA02221212
:101E800029789001667401F0022C7DEE30E707C3DB
:101E9000E49FFFE49EFE22122D0D75DA5822000009
:101EA0000000000000000000000000000000000032
:101EB0000000000000000000000000000000000022
:101EC0000000000000000000000000000000000012
:101ED0000000000000000000000000000000000002
:102FF000000000000000000000000000000000963B
:00000001FF
