:100000000110190000000000A01F0000FFD900002F
:10001000020F0DFFFFFFFFFFFFFFFF02185A7E03D5
:100020009000DCE06F6005EFF0E4A3F09000DCE00E
:10003000B4FF02E4FE9000DDE004F0C39E50037FB5
:1000400000229000DD7403F07F0122021A48E4F5DB
:10005000E3439F08439F02FF0FBF0FFC539FF775B9
:10006000BE0EE4F5BFF5B97592762202149C8F1C82
:10007000EF25E02410F8E2F51F08E2F520E51CC3A7
:100080009404500302017FEF25E024BEF582E4349E
:1000900015F583E493FA740193FBD39520EA951F39
:1000A0004019AE1FAF207C007D501205DBAD03ACC4
:1000B000021205ED8E1D8F1E0205BDE51C25E024F4
:1000C000CEF582E43415F583E493FA740193FBD3FF
:1000D0009520EA951F4054E51C25E024BEF582E4F6
:1000E0003415F583E493FE740193FFC3E5209FFF6D
:1000F000E51F9EFE7C007D0A1205DBE51C25E02441
:10010000BEF582E43415F583E493FC740193FDC3DA
:10011000EB9DFDEA9CFC1205ED8E1D8F1E74502593
:100120001EF51EE4351DF51D0205BDE51C25E02468
:10013000CEF582E43415F583E493FE740193FFC396
:10014000E5209FFFE51F9EFE7C007D0A1205DBE592
:100150001C25E024CEF582E43415F583E493FC7489
:100160000193FDE51C25E024DEF582E43415F583DA
:10017000C37401939DFDE4939CFC1205ED8E1D8FCD
:100180001E745A251EF51EE4351DF51D0205BDE53C
:100190001C25E0244EF582E43415F583E493FC74C9
:1001A0000193FDECC313FEED13FFC3E5209FE51F94
:1001B0009E5008E4F51DF51E0205BDD3ED9520EC1B
:1001C000951F4029AE1FAF207C007D0A1205DBE59C
:1001D0001C25E0244EF582E43415F583E493FC7489
:1001E0000193FD1205ED8E1D8F1E0205BDE51C2538
:1001F000E0245EF582E43415F583E493FA74019308
:10020000FBD39520EA951F4054E51C25E0244EF5CC
:1002100082E43415F583E493FE740193FFC3E52073
:100220009FFFE51F9EFE7C007D0A1205DBE51C2575
:10023000E0244EF582E43415F583E493FC740193D5
:10024000FDC3EB9DFDEA9CFC1205ED8E1D8F1E7417
:100250000A251EF51EE4351DF51D0205BDE51C250C
:10026000E0246EF582E43415F583E493FA74019387
:10027000FBD39520EA951F4054E51C25E0245EF54C
:1002800082E43415F583E493FE740193FFC3E52003
:100290009FFFE51F9EFE7C007D0A1205DBE51C2505
:1002A000E0245EF582E43415F583E493FC74019355
:1002B000FDC3EB9DFDEA9CFC1205ED8E1D8F1E74A7
:1002C00014251EF51EE4351DF51D0205BDE51C2592
:1002D000E0247EF582E43415F583E493FA74019307
:1002E000FBD39520EA951F4054E51C25E0246EF5CC
:1002F00082E43415F583E493FE740193FFC3E52093
:100300009FFFE51F9EFE7C007D0A1205DBE51C2594
:10031000E0246EF582E43415F583E493FC740193D4
:10032000FDC3EB9DFDEA9CFC1205ED8E1D8F1E7436
:100330001E251EF51EE4351DF51D0205BDE51C2517
:10034000E0248EF582E43415F583E493FA74019386
:10035000FBD39520EA951F4054E51C25E0247EF54B
:1003600082E43415F583E493FE740193FFC3E52022
:100370009FFFE51F9EFE7C007D0A1205DBE51C2524
:10038000E0247EF582E43415F583E493FC74019354
:10039000FDC3EB9DFDEA9CFC1205ED8E1D8F1E74C6
:1003A00028251EF51EE4351DF51D0205BDE51C259D
:1003B000E0249EF582E43415F583E493FA74019306
:1003C000FBD39520EA951F4054E51C25E0248EF5CB
:1003D00082E43415F583E493FE740193FFC3E520B2
:1003E0009FFFE51F9EFE7C007D0A1205DBE51C25B4
:1003F000E0248EF582E43415F583E493FC740193D4
:10040000FDC3EB9DFDEA9CFC1205ED8E1D8F1E7455
:1004100032251EF51EE4351DF51D0205BDE51C2522
:10042000E024AEF582E43415F583E493FA74019385
:10043000FBD39520EA951F4054E51C25E0249EF54A
:1004400082E43415F583E493FE740193FFC3E52041
:100450009FFFE51F9EFE7C007D0A1205DBE51C2543
:10046000E0249EF582E43415F583E493FC74019353
:10047000FDC3EB9DFDEA9CFC1205ED8E1D8F1E74E5
:100480003C251EF51EE4351DF51D0205BDE51C25A8
:10049000E024BEF582E43415F583E493FA74019305
:1004A000FBD39520EA951F4054E51C25E024AEF5CA
:1004B00082E43415F583E493FE740193FFC3E520D1
:1004C0009FFFE51F9EFE7C007D0A1205DBE51C25D3
:1004D000E024AEF582E43415F583E493FC740193D3
:1004E000FDC3EB9DFDEA9CFC1205ED8E1D8F1E7475
:1004F00046251EF51EE4351DF51D0205BDE51C252E
:10050000E024CEF582E43415F583E493FA74019384
:10051000FBD39520EA951F4053E51C25E024BEF54A
:1005200082E43415F583E493FE740193FFC3E52060
:100530009FFFE51F9EFE7C007D0A1205DBE51C2562
:10054000E024BEF582E43415F583E493FC74019352
:10055000FDC3EB9DFDEA9CFC1205ED8E1D8F1E7404
:1005600050251EF51EE4351DF51D8061E51C25E0B6
:1005700024CEF582E43415F583E493FE740193FFF1
:10058000C3E5209FFFE51F9EFE7C007D0A1205DB70
:10059000E51C25E024CEF582E43415F583E493FCD4
:1005A000740193FDE51C25E024DEF582E43415F5A5
:1005B00083C37401939DFDE4939CFC1205ED8E1D95
:1005C0008F1E745A251EF51EE4351DF51DAE1DAF98
:1005D0001E22BB010689828A83E0225002E722BBE9
:1005E000FE02E32289828A83E49322EF8DF0A4A89D
:1005F000F0CF8CF0A428CE8DF0A42EFE22BC000BF0
:10060000BE0029EF8DF084FFADF022E4CCF875F048
:1006100008EF2FFFEE33FEEC33FCEE9DEC98400527
:10062000FCEE9DFE0FD5F0E9E4CEFD22EDF8F5F0ED
:10063000EE8420D21CFEADF075F008EF2FFFED33F5
:10064000FD4007985006D5F0F222C398FD0FD5F073
:10065000EA22E88FF0A4CC8BF0A42CFCE98EF0A465
:100660002CFC8AF0EDA42CFCEA8EF0A4CDA8F08B33
:10067000F0A42DCC3825F0FDE98FF0A42CCD35F079
:10068000FCEB8EF0A4FEA9F0EB8FF0A4CFC5F02E0A
:10069000CD39FEE43CFCEAA42DCE35F0FDE43CFC73
:1006A0002275F008758200EF2FFFEE33FECD33CDBB
:1006B000CC33CCC58233C5829BED9AEC99E5829808
:1006C000400CF582EE9BFEED9AFDEC99FC0FD5F007
:1006D000D6E4CEFBE4CDFAE4CCF9A88222B800C17E
:1006E000B90059BA002DEC8BF084CFCECDFCE5F0EB
:1006F000CBF97818EF2FFFEE33FEED33FDEC33FC32
:10070000EB33FB10D703994004EB99FB0FD8E5E4DA
:10071000F9FA227818EF2FFFEE33FEED33FDEC33BC
:10072000FCC933C910D7059BE99A4007EC9BFCE94B
:100730009AF90FD8E0E4C9FAE4CCFB2275F010EF87
:100740002FFFEE33FEED33FDCC33CCC833C810D7CA
:10075000079BEC9AE899400AED9BFDEC9AFCE8991E
:10076000F80FD5F0DAE4CDFBE4CCFAE4C8F922EBDB
:100770009FF5F0EA9E42F0E99D42F0E89C45F022A8
:10078000E8600FECC313FCED13FDEE13FEEF13FF57
:10079000D8F122E8600FEFC333FFEE33FEED33FDF7
:1007A000EC33FCD8F122E6FC08E6FD08E6FE08E69C
:1007B000FF22E6FB08E6F908E6FA08E6CBF822ECA9
:1007C000F608EDF608EEF608EFF622ECF208EDF288
:1007D00008EEF208EFF222D083D082E493F6087498
:1007E0000193F608740293F608740393F674047385
:1007F000D083D082E493F208740193F208740293D8
:10080000F208740393F27404738A838982E473E4B4
:10081000F519F518E51825E025E02484F81207E01D
:10082000000000000518E518B406E9121C0DE4F5F7
:1008300018E51825E025E02484F8C000E2FC08E271
:10084000FD08E2FE08E2FFE51825E025E02450F867
:100850001207A2EF2BFFEE3AFEED39FDEC38FCD08B
:10086000001207BB0518E518B406C60519E519C33B
:10087000940540B7E4F518AF19E4FCFDFEC004A9E7
:1008800005AA06AB07E51825E025E02484F8E2FC7C
:1008900008E2FD08E2FE08E2FFD0001206CD8F1D3F
:1008A0008E1C8D1B8C1AAB1DAA1CA91BA81AC0007C
:1008B000E51825E02470F8E6FE08E6FFE4FCFDD02C
:1008C000001206428F1D8E1C8D1B8C1A7807120792
:1008D000708F1D8E1C8D1B8C1AE47FB87E0BFDFC67
:1008E000AB1DAA1CA91BA81AD312075F4030E51D37
:1008F0002448FFE51C34F4FEE51B34FFFDE51A3403
:10090000FFFCE51825E025E02430F81207AFE518D4
:1009100025E02430F8740BF20874B8F2801EE51854
:1009200025E025E02430F81207C700000000E51894
:1009300025E02430F8E51CF208E51DF2E51825E075
:100940002430F8E2FE08E2FFE51825E02450F8EE36
:10095000F208EFF2E51825E02430F8E2FE08E2FFA5
:10096000E4FCFDE51825E025E02460F81207BBE56E
:100970001825E025E02460F8C000E2FC08E2FD084C
:10098000E2FE08E2FF7807120783D0001207BBE5FA
:100990001825E02430F8E2FE08E2FFE51825E024FF
:1009A00040F8EEF208EFF2E51825E02410F8E4F242
:1009B00008F2E51825E025E02484F81207E000009D
:1009C0000000E51825E024B4F8E4F208F20518E583
:1009D0001864066003020867228E1A8F1BE4F51D57
:1009E000F51EF51FF51C9000F1E070089000DDE0A9
:1009F0006403601EE51C25E024B4F8E4F208F2E587
:100A00001C25E025E02484F81207E0000000000225
:100A10000ADFE51C25E0244EF582E43415F583E475
:100A200093F51D740193F51EE51C25E024B5F9E34B
:100A3000700219E3701AE51C25E02430F8E2FE0884
:100A4000E2FFE51C25E024A4F8EEF208EFF280575F
:100A5000E51C25E024A4F8E2FE08E2FFE51C25E001
:100A60002430F8E2FC08E2FD121E4CD3EF951EEE96
:100A7000951D4033E51C25E02430F8E2FE08E2FF36
:100A8000E51C25E024A4F8EEF208EFF2E51C25E0D1
:100A900024B4F8E4F208F2E51C25E025E02484F80B
:100AA0001207E000000000E51C25E02430F8E2FE1B
:100AB00008E2FFE51C25E025E02484F8C000E2FB05
:100AC00008E2F908E2FA08E2CBF8E4FCFDEB2FFFBC
:100AD000EA3EFEED39FDEC38FCD0001207BBE51C08
:100AE00025E024B4F808E22401F218E23400F2050B
:100AF0001CE51CC3940650030209D6E4F51CE51C52
:100B000025E024B5F9C3E3951B19E3951A400205C6
:100B10001F051CE51CB406E6E51F64067063F51CA2
:100B2000E51C25E024B4F8E2FE08E2FF4E604BE449
:100B3000FCFDC004A905AA06AB07E51C25E025E0DD
:100B40002484F8E2FC08E2FD08E2FE08E2FFD0009F
:100B50001206CDE51C25E02440F8EEF208EFF2E5A0
:100B60001C25E024B4F8E4F208F2E51C25E025E0B9
:100B70002484F81207E000000000051CE51CB40600
:100B80009F2285BA1E53BA0F43BA10E4F518E51830
:100B900025E025E02450F81207C7000000000518E2
:100BA000E518B406E975180A75ABFF121DA6E4F541
:100BB00019E51925E025E02450F8C000120796C079
:100BC00004C005C006C00774C42519F8E675F00313
:100BD000A42480F582E4341EF583E493FB7401932E
:100BE000FA740293F91207F9A804A905AA06AB073B
:100BF000D007D006D005D004EF2BFFEE3AFEED393A
:100C0000FDEC38FCD0001207AF0519E519C39406B6
:100C1000409FE4F5AB121DA6E4F519E51925E02582
:100C2000E02450F8C000120796C004C005C006C0FA
:100C30000774C42519F8E675F003A42480F582E44E
:100C4000341EF583E493FB740193FA740293F91252
:100C500007F9A804A905AA06AB07D007D006D00556
:100C6000D004C3EF9BFFEE9AFEED99FDEC98FCD00B
:100C7000001207AF0519E519C39406409E1518E543
:100C8000186003020B98E4F519E4751D20751C4EDD
:100C9000F51BF51AAF1DAE1CAD1BAC1A7807120779
:100CA000838F1D8E1C8D1B8C1AE51925E025E024F1
:100CB00050F81207A21206CD8F1D8E1C8D1B8C1AA8
:100CC000E51925E02470F8A60608A6070519E51918
:100CD000B406B6851EBA22E4F518E51825E025E02D
:100CE0002450F8C000120796C006C007E51825E09A
:100CF0002470F8E6FE08E6FFFBAA06E4F9F8D00740
:100D0000D006120642D0001207AFE51825E025E014
:100D10002450F8C0001207967807120770D000120E
:100D200007AFE51825E025E02450F8120796EC4DB2
:100D30004E4F7003020DD9E51825E025E02430F868
:100D4000120796E51825E025E02450F81207A2C303
:100D500012075F50037F0322E51825E025E02430C9
:100D6000F81207A2C000E51825E025E02450F8128B
:100D70000796D000C3EF9BF51CEE9AF51BED99F595
:100D80001AEC98F519E47FFF7EFFFDFCAB1CAA1B53
:100D9000A91AA819C312075F40037F0322E518258B
:100DA000E02430F8E51BF208E51CF2E51825E02404
:100DB00040F8E2FE08E2FFE51825E02430F8E2FC06
:100DC00008E2FDD39FEC9E4013ED9FFFEC9EF8E5FB
:100DD0001825E02410C8F208EFF2801BE51825E082
:100DE0002410F8E4F208F2800EE51825E02410F84B
:100DF000E4F208F27F03220518E518640660030296
:100E00000CCA7F07227518077D0774017E00A81899
:100E1000088005C333CE33CED8F9FFACACECFBE48D
:100E2000EF5B7003D518E3ED601D74017E00A8052B
:100E3000088005C333CE33CED8F9FFACAEECFBE46B
:100E4000EF5B70031D80E0AF187401A807088002F3
:100E5000C333D8FCF5AC7401A805088002C333D8AD
:100E6000FCFFF5AD8FAE53AACF85BA2153BA0F431D
:100E7000BA10E4F51CF51BF51AF519121DA6E4F5D8
:100E80001874C42518F8E675F003A42480F582E4EC
:100E9000341EF583E493740193FA740293F91207F4
:100EA000F98F208E1F8D1E8C1DAB1CAA1BA91AA8A2
:100EB00019C312075F500C85201C851F1B851E1A45
:100EC000851D190518E518C3940640B5AF1CAE1B67
:100ED000AD1AAC197803120770E51C2FF51CE51B41
:100EE0003EF51BE51A3DF51AE5193CF519AF1CAEA8
:100EF0001BAD1AFC78101207708FB3AF1CAE1BAD80
:100F00001AAC1978081207708FB2851CB143AA3049
:100F10008521BA75AC0375ADC075AEC022E453C669
:100F2000DFE5C600B5C6F675830075820775FD0D51
:100F3000E4E5FEF4FF75830075820675FD0DE4E5BA
:100F4000FEB50704F59E8003759E0078100000D85A
:100F5000FC53C6E043C60843C680759603759703E5
:100F600075830075820375FD0DE4E5FEF4FF75835E
:100F70000075820275FD0DE4E5FEB50704F5958068
:100F80000375958375BE0E5392FE9001007F007E1F
:100F900002E4F0A3DFFCDEFA78007F00E4F208DF71
:100FA000FC78FFE4F6D8FD7581CF020FDB0200006C
:100FB0000213CAE493A3F8E493A34003F68001F27A
:100FC00008DFF48029E493A3F85407240CC8C33342
:100FD000C4540F4420C8834004F456800146F6DF11
:100FE000E4800B0102040810204080901BCBE47EBB
:100FF000019360BCA3FF543F30E509541FFEE49306
:10100000A360010ECF54C025E060A840B8E493A3CC
:10101000FAE493A3F8E493A3C8C582C8CAC583CAF7
:10102000F0A3C8C582C8CAC583CADFE9DEE780BEAF
:10103000121B868F1A9000F1E060030210C4F51BAA
:10104000E51B25E02430F8E2FE08E2FFE48F1F8E66
:101050001EF51DF51CAD1DAC1C78071207838F1FF4
:101060008E1E8D1D8C1CE51B25E025E02460F8E21A
:10107000FC08E2FD08E2FE08E2FFE47B1FFAF9F853
:10108000120642EF251FFFEE351EFEED351DFDEC6D
:10109000351CFC7805120770E51B25E025E024606F
:1010A000F81207BBE51B25E025E02460F8E2FC0808
:1010B000E2FD08E2FE08E2FF7807120770E51B2553
:1010C000E02450F8EEF208EFF2051BE51B64066021
:1010D00003021030E49000EDF0A3F0751B01E51B56
:1010E00025E02450F8E2FE08E2FF9000EDE025E064
:1010F0002451F9C3E39F19E39E5003E51BF09000D0
:10110000EEE025E02451F9D3E39F19E39E4003E587
:101110001BF0051BE51BB406C5AF1A12000EEF70DD
:1011200002FF227F01227518FF7519081219F212A9
:101130001020BF012E7F01121CB4AD07AC06ECC31A
:1011400013FCED13FDD39000E5E094009000E4E083
:1011500094004006EC13FCED13FDAF05AE0412093C
:10116000C98003AF19229000DCE0F5189000F1E08F
:10117000602DE49000E8F0A3F09000E7E004F07048
:10118000069000E6E004F07F05121CB4D39000E75F
:10119000E09F9000E6E09E4067121B3C7F0322E444
:1011A0009000E6F0A3F09000EDE025E02450F8E296
:1011B000FE08E2FFA3E025E02450F8E2FC08E2FD8F
:1011C000121E4C9000EFE0FDD3EF9DEE9400401016
:1011D0009000E9E004F070069000E8E004F0800779
:1011E000E49000E8F0A3F07F07121CB4D39000E96C
:1011F000E09F9000E8E09E4007E4F0A3F0121202A6
:10120000E518047005121B3C8005AF181217E7AFF4
:101210001922E4F51AE51A25E025E02430F8120732
:1012200096E4FBFAF9F8C312075F70030212E1E5D6
:101230001A25E025E02430F8C000120796C006C049
:1012400007E51A25E02440F8E2FE08E2FFFBAA06C3
:10125000E4F9F8D007D006EF2BFFEE3AFEE93DFDAA
:10126000E83CFCD0001207AFE51A25E025E0243069
:10127000F8C000120796C3EF94B8FFEE940BFEED92
:101280009400FDEC9400FCD0001207AFE51A25E0B5
:101290002440F8740BF20874B8F2E51A25E0243003
:1012A000F8740BF20874B8F2E51A25E02450F874CB
:1012B0000BF20874B8F2E51A25E025E02460F81274
:1012C00007E000000BB8E51A25E025E02460F8C02F
:1012D00000E2FC08E2FD08E2FE08E2FF78071207E0
:1012E00083D0001207BBE51A25E02410F8E4F208C9
:1012F000F2051AE51A64066003021205227522FF40
:10130000E4F5219000EDE0FD65217063A3E025E0A8
:101310002450F8E2FE08E2FFED25E02450F8E2FC5C
:1013200008E2FD121E4C8E238F249000EEE025E093
:101330002430F8E2FE08E2FF9000EDE025E02430E2
:10134000F8E2FC08E2FD121E4C9000EFE07C002564
:1013500024FDEC3523FCC3EF9DEE9C506AAF217455
:1013600001A807088002C333D8FCF452228058E554
:101370002125E02430F8E2FE08E2FF9000EDE025B0
:10138000E02451F9D3E39F19E39E4010AD2174018D
:10139000A805088002C333D8FCF45222E52125E0D9
:1013A0002451F89000EFE0FDE22DFD18E23400FC3E
:1013B000C3EF9DEE9C5010AF217401A80708800276
:1013C000C333D8FCF452220521E521C39404500311
:1013D0000212F39000F5E522F02212003E7D01E4B6
:1013E000FF121C497F01121E127F01121E66121F7E
:1013F0007A121F6D121DCC121A9E121C7F121D1B19
:10140000D2AF752E01E52E24FD601C14602424FE4D
:1014100060291460301460602407705F121AF112A2
:1014200018C5752E048054121AF11218C5752E04B1
:101430008049E52F70FC752E068040120CC78F2E58
:10144000121E988036D39000E5E094009000E4E00E
:101450009400400CA3E024FFF09000E4E034FFF09F
:101460009000E1E004F070069000E0E004F012115A
:10147000168F2E1216808003752E049000F0E06007
:1014800022E4788BF6FF121F7AE4F0F52AF52B00A0
:10149000052BE52B7002052A64A0452A70F17F0117
:1014A000121F7AD2D812192C0213F522C0E0C0F014
:1014B000C083C082C0D075D008C2CF30CD03021522
:1014C0004330CB4920CC467880A6CEE6FF54F0FED0
:1014D000BE8031EF540F75F003A4244CF582E43440
:1014E0001DF583E493FB740193FA7402938B278AAE
:1014F00028F5290529E5297002052814F91205C2E5
:10150000F5CE80097880E62526F8E6F5CE30CC2A9F
:101510007880E654F0FFBF8015AB270529E529AA9E
:10152000287002052814F91205C2F5CE80217880B2
:1015300006E62526F8E6F5CE801520CB127880E663
:10154000FFC3940A500674812FF8A6CE78800678DF
:101550008B7601D0D0D082D083D0F0D0E032001989
:1015600000190028002800080008000000000028DA
:10157000002800500050000A000A00000000004B44
:10158000004B007D007D000C000C00000000007D81
:10159000007D00FA00FA001000100000000000DCDE
:1015A00000DC01B801B80013001300000000014086
:1015B000014002760276001E001E0000000001C2FB
:1015C00001C203340334002D002D0000000002127C
:1015D00002120500050000500050000000000258F3
:1015E00002580528052800780078000000000276DF
:1015F00002760564056400DC00DC000000000019D0
:1016000000177BFFE4FAEA25E024EEF582E43415C6
:10161000F583E493FE740193FFEA25E02401F9C306
:10162000E39F19E39E505AEA25E02410F909E325C7
:10163000E0FF19E333FE7C007D071205ED8E218F5C
:1016400022EA25E02410F8E2FE08E2FF7C007D0596
:101650001205EDEF240AFFE43EFEEA25E02418F827
:10166000E2FC08E2FDC39FEC9E5016ED9522EC953E
:1016700021400E7401A802088002C333D8FCF45242
:10168000030AEA640260030215F69000F4EBF0220C
:10169000E4F518E51875F006A42494FFE51825E094
:1016A0002420F8E2FC08E2FD121EADE51875F006F4
:1016B000A42496FFE51825E02410F8E2FC08E2FDDA
:1016C000121EADE51875F006A42498FBC003E518BA
:1016D00025E02430F8E2FE08E2FFE4FCFDE51825F1
:1016E000E025E02430F81207A2EF2BFFEE3AFEEDE2
:1016F00039FDEC38FC7804120770AD07AC06D00752
:10170000121EAD0518E518C39406408722E4FE7842
:101710008FE630E035E4FF7893E624FEFD18E634EA
:10172000FFFCEF25E02401F9C3E39D19E39C40147D
:101730009000DEE0FD7401A805088002C333D8FCE8
:10174000420680390FBF04CF8033E4FF7893E6244C
:10175000FEFD18E634FFFCEF25E02401F9C3E39D0C
:1017600019E39C40149000DEE0FD7401A805088098
:1017700002C333D8FC420680040FBF02CF9000F6AC
:10178000EEF022E4F521FF79FFFEEE25E02400F8DB
:10179000E2FC08E2C3789396EC18964049788FE60D
:1017A00030E00F7401A806088002C333D8FC42075A
:1017B0008027EEC39402500F7401A806088002C36C
:1017C00033D8FC42078012EE24FEFD7401A8050800
:1017D0008002C333D8FCF452017401A806088002C9
:1017E000C333D8FC42210EBE04A09000F1E521F0E5
:1017F000A3EFF0A3E9F022EFC3940650139000DEAC
:10180000E06F600CE49000E6F0A3F09000DEEFF0F3
:101810009000DEE0FFA3E06F604F788FE630E021BC
:10182000EFC39406503D9000F0E0703704F0900054
:10183000DEE024C4F582E43400F583E0788CF680A1
:10184000229000DEE0C3940250199000F0E0701383
:1018500004F09000DEE024C4F582E43400F583E077
:10186000788CF69000DEE0A3F022C0E0C0F0C083E8
:10187000C082C0D075D000C000C004C005C006C082
:1018800007C28D758CD8758AF0052DE52D7002057F
:101890002CAE2CFF7C007D641205EDED4C70219088
:1018A00000E0E0FEA3E0FFD3940AEE94004006A31C
:1018B000EEF0A3EFF09000E0E4F0A3F0F52CF52DAE
:1018C000D007D006D005D004D000D0D0D082D083AD
:1018D000D0F0D0E032E4FBFA121E319000DC74FF4D
:1018E000F09000DEF0A3F0E49000DDF09000E6F070
:1018F000A3F0A3F0A3F0FFEF25E0248EF582E434FB
:1019000015F583E493FC7401932BFBEC3AFA0FBFBB
:1019100002E57C007D14AF03AE021205ED9000EFEE
:10192000EFF0120B72120DF51207FF7F0A121CB4B2
:101930009000E4EEF0A3EFF0121E98227881E6FF0B
:10194000605FE4F6EF24E0601E24F0602024F06085
:101950002A24F0603424F0603724F0603A24607068
:1019600040E4FF121E12227F01121E12227892768C
:101970000008760F788FE64410F6227892760008F9
:10198000761E788FE654EFF622788FE64401F62231
:10199000788FE654FEF622121CE87890A60608A678
:1019A0000722AC07E4F9EC6056788FE630E023E4D8
:1019B000FD74017E00A805088005C333CE33CED860
:1019C000F9FFECFBE4EF5B60038D21090DBD04E141
:1019D0008021E4FD74017E00A805088005C333CE94
:1019E00033CED8F9FFECFBE4EF5B60038D21090DEA
:1019F000BD02E1E9D3940140037FFF22AF21227FA2
:101A0000FF22E4FF12005E8E1A8F1B7820E51AF287
:101A100008E51BF27901AF0112005EE925E0242000
:101A2000F8EEF208EFF2D3E51B9FE51A9E40048E14
:101A30001A8F1B09B906DFE4F9E925E02421F8C370
:101A4000E2951BFF18E2951AF8E925E02400C8F298
:101A500008EFF209B906E222C0E0C0F0C083C082FC
:101A6000C0D075D01053B9FD75250074C42525F874
:101A7000E675F003A42480F582E4341EF583E49334
:101A8000740193FA740293F91207F9E52525E0250C
:101A9000E02450F81207AF0525E525C3940640CB96
:101AA000752F00D0D0D082D083D0F0D0E032788CA7
:101AB0007608121D7CBFFF050876198004788D76A4
:101AC000FFE4788EF608F674FF08F608F60876004C
:101AD00008761EE4FFEF75F006A42494F8E4F608F7
:101AE000F6EF75F006A42496F8E4F608F6EF75F024
:101AF00006A42498F8E4F608F60FBF06D875268CDD
:101B000022E4FFFE74C42EF8E6901F839342070E72
:101B1000BE06F1EF42D4EF42F4EF42E4EFF452DCC0
:101B200075BA0C43BA2043B92053B9BF8FB4E4F55A
:101B3000B375B22775B11075BBFF75A95075AA3B77
:101B4000F5AB75AC0375ADC075AEC022E49000E690
:101B5000F0A3F09000DE74FFF0A3E0FFF4603078B3
:101B60008FE630E016EFC3940650249000F0E0704A
:101B70001E04F0788CE64408F68014EFC3940250FB
:101B80000E9000F0E0700804F0788CE64408F690BF
:101B900000DF74FFF0229000DEE0F4702F12177364
:101BA0001212ED1215F29000F1E0FF9000F5E0FE48
:101BB000EF5E9000F1F0A3E0F520A3E0522090004A
:101BC000F5E052209000F4E0522080091216FD90BA
:101BD00000F6E0F520AF201219922208C402050396
:101BE000040106000704CC00000000602D00C401C1
:101BF00002030405060708000000000000000000C2
:101C000000000000000000FF00FFFF0000000000D7
:101C100000000000000000000000000000121DA6EF
:101C2000E4F51E74C4251EF8E675F003A42480F5BF
:101C300082E4341EF583E493740193FA740293F9F9
:101C40001207F9E51E25E025E02450F81207AF053C
:101C50001EE51EC3940640CB22E4FE7C0674C42C11
:101C6000F8E6901F839342060CBC08F1EF6005EE86
:101C700042D48004EEF452D4EEF4FF52F4EE42E487
:101C8000ED6005EE42EC8003EF52ECEF52DC227E79
:101C9000007FCCE4FDED25E024F2F582E4341DF56F
:101CA00083E493F4601DED25E024F3F582E4341D14
:101CB000F583E493FCEF2DF582E43EF583ECF00D23
:101CC000BD10D222751A00751BCC7B017A00BFFFB4
:101CD000057F017E0022E51B2FF582E4351AF5838E
:101CE000E07A00FB9000E2E0FCA3E0FDAF037E00A1
:101CF0001205DBAA06AB0722E4F518F519FFFEFD75
:101D00007C20ED1DAA0470011C4A601E0519E5190E
:101D1000AA187002051814F5828A83E493F4FBE490
:101D2000F4FAEB2FFFEA3EFE80D82243F80875CD87
:101D3000C053CC7F43CC4043CC2043CC1043CC0495
:101D400053CCFD43CB0243CB0153CBBF43E80853F5
:101D5000E5FC43E30243F50343900322FE0030FE1B
:101D60000038FE0040FE0048FE0050FE0058000013
:101D7000700000780100F10100E0FE0000FE00802C
:101D8000FE0020FE0028FE0010FE0018E4F518F505
:101D900019FFFD7C20ED1DAA0470011C4A60160588
:101DA00019E519AA187002051814F5828A83E493BC
:101DB000F42FFF80E02275BF0F000000000000003C
:101DC0000000000000000000000000D2D853B9FD60
:101DD00043B901E5B930E1FBE4F5BF22438901C213
:101DE0008DD2A953B8FDE4F52CF52D9000E0F0A3B9
:101DF000F0A3F0A37464F0758CD8758AF0D28CD2FD
:101E0000AF2200020101020103010401050A0605D7
:101E10000702080A09020A020B280C3C0D030E01F6
:101E2000FF01E4FE7D0674C42DF8E6901F83934203
:101E3000060DBD08F1EF6004EE428022EEF4528000
:101E40002253BAFEE5B920E004E52F6005E5B9307C
:101E5000E1FBE4F5BF53B9FE53B9FD22AB07AA0677
:101E6000D3EB9DEA9C4007EB9DFFEA9CFE22C3ED6D
:101E70009BFFEC9AFE22EF600543D504800353D507
:101E8000FB53F5FB53E5FB43E304E49000F0F02241
:101E9000FF1ED5FF1EE8FF1EFBFF1F0EFF1F21FFC9
:101EA0001F34FF1F47FF1F5A75BF0F43B92053B997
:101EB000FD43BA01752F0143B901D2D822AB07AF58
:101EC00004AE05C2AFA803A607E804F8A606D2AF81
:101ED00022ED6008EF901F8393428022EF901F83D2
:101EE00093F452802253B9EF78CDA6B708A6B6086E
:101EF000A6B578CC1207962253B9EF78CDA6EB0899
:101F0000A6EA08A6E978CC1207962253B9EF78CD55
:101F1000A6F308A6F208A6F178CC1207962253B9C8
:101F2000EF78CDA6FB08A6FA08A6F978CC1207969A
:101F30002243B91078CDA6B708A6B608A6B578CCC6
:101F40001207962243B91078CDA6EB08A6EA08A698
:101F5000E978CC1207962243B91078CDA6F308A6EB
:101F6000F208A6F178CC1207962243B91078CDA6D4
:101F7000FB08A6FA08A6F978CC12079622C2DA5313
:101F8000D80F43D8D0D2D8D2D922EF6003D2922230
:101F9000C292220102040810204080E7FFFFFFFFE9
:101FA000FFFFFFFFFFFFFFFFFFFFFFFFFFFFFFFF41
:00000001FF
